{
  "_format": "hh-sol-artifact-1",
  "contractName": "TaskContract",
  "sourceName": "contracts/TaskContract.sol",
  "abi": [
    {
      "inputs": [],
      "stateMutability": "nonpayable",
      "type": "constructor"
    },
    {
      "anonymous": false,
      "inputs": [
        {
          "indexed": false,
          "internalType": "address",
          "name": "recipient",
          "type": "address"
        },
        {
          "indexed": false,
          "internalType": "uint256",
          "name": "taskId",
          "type": "uint256"
        }
      ],
      "name": "AddTask",
      "type": "event"
    },
    {
      "anonymous": false,
      "inputs": [
        {
          "indexed": false,
          "internalType": "uint256",
          "name": "taskId",
          "type": "uint256"
        },
        {
          "indexed": false,
          "internalType": "bool",
          "name": "isCompleted",
          "type": "bool"
        }
      ],
      "name": "CompleteTask",
      "type": "event"
    },
    {
      "inputs": [
        {
          "internalType": "string",
          "name": "taskText",
          "type": "string"
        },
        {
          "internalType": "bool",
          "name": "isCompleted",
          "type": "bool"
        },
        {
          "internalType": "address",
          "name": "assignedTo",
          "type": "address"
        }
      ],
      "name": "addTask",
      "outputs": [],
      "stateMutability": "nonpayable",
      "type": "function"
    },
    {
      "inputs": [],
      "name": "admin",
      "outputs": [
        {
          "internalType": "address",
          "name": "",
          "type": "address"
        }
      ],
      "stateMutability": "view",
      "type": "function"
    },
    {
      "inputs": [
        {
          "internalType": "uint256",
          "name": "taskId",
          "type": "uint256"
        }
      ],
      "name": "completeTask",
      "outputs": [],
      "stateMutability": "nonpayable",
      "type": "function"
    },
    {
      "inputs": [],
      "name": "getMyTasks",
      "outputs": [
        {
          "components": [
            {
              "internalType": "uint256",
              "name": "id",
              "type": "uint256"
            },
            {
              "internalType": "address",
              "name": "assignedTo",
              "type": "address"
            },
            {
              "internalType": "string",
              "name": "taskText",
              "type": "string"
            },
            {
              "internalType": "bool",
              "name": "isCompleted",
              "type": "bool"
            }
          ],
          "internalType": "struct TaskContract.Task[]",
          "name": "",
          "type": "tuple[]"
        }
      ],
      "stateMutability": "view",
      "type": "function"
    }
  ],
  "bytecode": "0x608060405234801561001057600080fd5b5033600260006101000a81548173ffffffffffffffffffffffffffffffffffffffff021916908373ffffffffffffffffffffffffffffffffffffffff1602179055506110fd806100616000396000f3fe608060405234801561001057600080fd5b506004361061004c5760003560e01c80636e13f81814610051578063b806c3731461006f578063e1e295581461008b578063f851a440146100a7575b600080fd5b6100596100c5565b604051610066919061097b565b60405180910390f35b61008960048036038101906100849190610b3e565b61035e565b005b6100a560048036038101906100a09190610bd9565b6105bd565b005b6100af6106eb565b6040516100bc9190610c15565b60405180910390f35b60606000600160003373ffffffffffffffffffffffffffffffffffffffff1673ffffffffffffffffffffffffffffffffffffffff1681526020019081526020016000208054905067ffffffffffffffff811115610125576101246109bb565b5b60405190808252806020026020018201604052801561015e57816020015b61014b610711565b8152602001906001900390816101435790505b50905060005b600160003373ffffffffffffffffffffffffffffffffffffffff1673ffffffffffffffffffffffffffffffffffffffff1681526020019081526020016000208054905081101561035657600160003373ffffffffffffffffffffffffffffffffffffffff1673ffffffffffffffffffffffffffffffffffffffff16815260200190815260200160002081815481106101ff576101fe610c30565b5b9060005260206000209060040201604051806080016040529081600082015481526020016001820160009054906101000a900473ffffffffffffffffffffffffffffffffffffffff1673ffffffffffffffffffffffffffffffffffffffff1673ffffffffffffffffffffffffffffffffffffffff16815260200160028201805461028890610c8e565b80601f01602080910402602001604051908101604052809291908181526020018280546102b490610c8e565b80156103015780601f106102d657610100808354040283529160200191610301565b820191906000526020600020905b8154815290600101906020018083116102e457829003601f168201915b505050505081526020016003820160009054906101000a900460ff16151515158152505082828151811061033857610337610c30565b5b6020026020010181905250808061034e90610cee565b915050610164565b508091505090565b600080805490509050600060405180608001604052808381526020018473ffffffffffffffffffffffffffffffffffffffff16815260200186815260200185151581525090806001815401808255809150506001900390600052602060002090600402016000909190919091506000820151816000015560208201518160010160006101000a81548173ffffffffffffffffffffffffffffffffffffffff021916908373ffffffffffffffffffffffffffffffffffffffff16021790555060408201518160020190816104319190610ee2565b5060608201518160030160006101000a81548160ff0219169083151502179055505050600160008373ffffffffffffffffffffffffffffffffffffffff1673ffffffffffffffffffffffffffffffffffffffff16815260200190815260200160002060405180608001604052808381526020018473ffffffffffffffffffffffffffffffffffffffff16815260200186815260200185151581525090806001815401808255809150506001900390600052602060002090600402016000909190919091506000820151816000015560208201518160010160006101000a81548173ffffffffffffffffffffffffffffffffffffffff021916908373ffffffffffffffffffffffffffffffffffffffff160217905550604082015181600201908161055b9190610ee2565b5060608201518160030160006101000a81548160ff02191690831515021790555050507f1f54e1ba1832d428fbd7e7792beaf62b1fc5a382c207ffd614209c1413e94fda82826040516105af929190610fc3565b60405180910390a150505050565b600081815481106105d1576105d0610c30565b5b906000526020600020906004020160010160009054906101000a900473ffffffffffffffffffffffffffffffffffffffff1673ffffffffffffffffffffffffffffffffffffffff163373ffffffffffffffffffffffffffffffffffffffff1614610670576040517f08c379a00000000000000000000000000000000000000000000000000000000081526004016106679061106f565b60405180910390fd5b60016000828154811061068657610685610c30565b5b906000526020600020906004020160030160006101000a81548160ff0219169083151502179055507fa4a1d94d1676fe30c56127e96641c5e95021748f1e6b8271009dde8177cc2ab48160016040516106e092919061109e565b60405180910390a150565b600260009054906101000a900473ffffffffffffffffffffffffffffffffffffffff1681565b604051806080016040528060008152602001600073ffffffffffffffffffffffffffffffffffffffff168152602001606081526020016000151581525090565b600081519050919050565b600082825260208201905092915050565b6000819050602082019050919050565b6000819050919050565b6107908161077d565b82525050565b600073ffffffffffffffffffffffffffffffffffffffff82169050919050565b60006107c182610796565b9050919050565b6107d1816107b6565b82525050565b600081519050919050565b600082825260208201905092915050565b60005b838110156108115780820151818401526020810190506107f6565b60008484015250505050565b6000601f19601f8301169050919050565b6000610839826107d7565b61084381856107e2565b93506108538185602086016107f3565b61085c8161081d565b840191505092915050565b60008115159050919050565b61087c81610867565b82525050565b600060808301600083015161089a6000860182610787565b5060208301516108ad60208601826107c8565b50604083015184820360408601526108c5828261082e565b91505060608301516108da6060860182610873565b508091505092915050565b60006108f18383610882565b905092915050565b6000602082019050919050565b600061091182610751565b61091b818561075c565b93508360208202850161092d8561076d565b8060005b85811015610969578484038952815161094a85826108e5565b9450610955836108f9565b925060208a01995050600181019050610931565b50829750879550505050505092915050565b600060208201905081810360008301526109958184610906565b905092915050565b6000604051905090565b600080fd5b600080fd5b600080fd5b600080fd5b7f4e487b7100000000000000000000000000000000000000000000000000000000600052604160045260246000fd5b6109f38261081d565b810181811067ffffffffffffffff82111715610a1257610a116109bb565b5b80604052505050565b6000610a2561099d565b9050610a3182826109ea565b919050565b600067ffffffffffffffff821115610a5157610a506109bb565b5b610a5a8261081d565b9050602081019050919050565b82818337600083830152505050565b6000610a89610a8484610a36565b610a1b565b905082815260208101848484011115610aa557610aa46109b6565b5b610ab0848285610a67565b509392505050565b600082601f830112610acd57610acc6109b1565b5b8135610add848260208601610a76565b91505092915050565b610aef81610867565b8114610afa57600080fd5b50565b600081359050610b0c81610ae6565b92915050565b610b1b816107b6565b8114610b2657600080fd5b50565b600081359050610b3881610b12565b92915050565b600080600060608486031215610b5757610b566109a7565b5b600084013567ffffffffffffffff811115610b7557610b746109ac565b5b610b8186828701610ab8565b9350506020610b9286828701610afd565b9250506040610ba386828701610b29565b9150509250925092565b610bb68161077d565b8114610bc157600080fd5b50565b600081359050610bd381610bad565b92915050565b600060208284031215610bef57610bee6109a7565b5b6000610bfd84828501610bc4565b91505092915050565b610c0f816107b6565b82525050565b6000602082019050610c2a6000830184610c06565b92915050565b7f4e487b7100000000000000000000000000000000000000000000000000000000600052603260045260246000fd5b7f4e487b7100000000000000000000000000000000000000000000000000000000600052602260045260246000fd5b60006002820490506001821680610ca657607f821691505b602082108103610cb957610cb8610c5f565b5b50919050565b7f4e487b7100000000000000000000000000000000000000000000000000000000600052601160045260246000fd5b6000610cf98261077d565b91507fffffffffffffffffffffffffffffffffffffffffffffffffffffffffffffffff8203610d2b57610d2a610cbf565b5b600182019050919050565b60008190508160005260206000209050919050565b60006020601f8301049050919050565b600082821b905092915050565b600060088302610d987fffffffffffffffffffffffffffffffffffffffffffffffffffffffffffffffff82610d5b565b610da28683610d5b565b95508019841693508086168417925050509392505050565b6000819050919050565b6000610ddf610dda610dd58461077d565b610dba565b61077d565b9050919050565b6000819050919050565b610df983610dc4565b610e0d610e0582610de6565b848454610d68565b825550505050565b600090565b610e22610e15565b610e2d818484610df0565b505050565b5b81811015610e5157610e46600082610e1a565b600181019050610e33565b5050565b601f821115610e9657610e6781610d36565b610e7084610d4b565b81016020851015610e7f578190505b610e93610e8b85610d4b565b830182610e32565b50505b505050565b600082821c905092915050565b6000610eb960001984600802610e9b565b1980831691505092915050565b6000610ed28383610ea8565b9150826002028217905092915050565b610eeb826107d7565b67ffffffffffffffff811115610f0457610f036109bb565b5b610f0e8254610c8e565b610f19828285610e55565b600060209050601f831160018114610f4c5760008415610f3a578287015190505b610f448582610ec6565b865550610fac565b601f198416610f5a86610d36565b60005b82811015610f8257848901518255600182019150602085019450602081019050610f5d565b86831015610f9f5784890151610f9b601f891682610ea8565b8355505b6001600288020188555050505b505050505050565b610fbd8161077d565b82525050565b6000604082019050610fd86000830185610c06565b610fe56020830184610fb4565b9392505050565b600082825260208201905092915050565b7f4f6e6c792061737369676e656420757365722063616e20636f6d706c6574652060008201527f7461736b00000000000000000000000000000000000000000000000000000000602082015250565b6000611059602483610fec565b915061106482610ffd565b604082019050919050565b600060208201905081810360008301526110888161104c565b9050919050565b61109881610867565b82525050565b60006040820190506110b36000830185610fb4565b6110c0602083018461108f565b939250505056fea2646970667358221220e8ad9ccb9db3083f62a6838104cc31b0e86d0461f4e05a5f889b9eab5aa5fc1c64736f6c63430008130033",
  "linkReferences": {},
  "deployedLinkReferences": {}
}